:100000000C945D000C9485000C9485000C94850084
:100010000C9485000C9485000C9485000C9485004C
:100020000C9485000C9485000C9485000C9485003C
:100030000C9485000C9485000C9485000C9485002C
:100040000C9419020C9485000C9489020C946302A0
:100050000C9485000C9485000C9485000C9485000C
:100060000C9485000C9485000000000024002700FB
:100070002A0000000000250028002B0004040404CE
:100080000404040402020202020203030303030342
:10009000010204081020408001020408102001021F
:1000A00004081020000000080002010000030407FB
:1000B0000000000000000000930311241FBECFEFDA
:1000C000D8E0DEBFCDBF11E0A0E0B1E0EEEDF7E09B
:1000D00002C005900D92A431B107D9F721E0A4E147
:1000E000B1E001C01D92AA3BB207E1F710E0CDE5F7
:1000F000D0E004C02197FE010E94E203CC35D10775
:10010000C9F70E94BB020C94ED030C940000EEEAC8
:10011000F0E02491EAE9F0E09491E6E8F0E0E4917F
:10012000EE2309F43BC0222339F1233091F038F457
:100130002130A9F0223001F524B52F7D12C02730DF
:1001400091F02830A1F02430B9F4209180002F7D67
:1001500003C0209180002F77209380000DC024B52C
:100160002F7724BD09C02091B0002F7703C02091C4
:10017000B0002F7D2093B000F0E0EE0FFF1FEE588F
:10018000FF4FA591B4912FB7F894EC91811103C062
:1001900090959E2301C09E2B9C932FBF0895CF92D4
:1001A000DF92EF92FF920F931F93CF93DF936C0137
:1001B0007A018B01C0E0D0E0CE15DF0589F0D801CF
:1001C0006D918D01D601ED91FC910190F081E02DB2
:1001D000C6010995892B11F47E0102C02196ECCF4E
:1001E000C701DF91CF911F910F91FF90EF90DF90AA
:1001F000CF900895FC01918D828D981761F0828DCA
:10020000DF01A80FB11D5D968C91928D9F5F9F734A
:10021000928F90E008958FEF9FEF0895FC01918DEC
:10022000828D981731F0828DE80FF11D858D90E059
:1002300008958FEF9FEF0895FC01918D228D892FF6
:1002400090E0805C9F4F821B91098F7399270895DE
:100250008DE191E00E941C0121E0892B09F420E04E
:10026000822F0895FC01848DDF01A80FB11DA35AD0
:10027000BF4F2C91848D90E001968F739927848FC6
:10028000A689B7892C93A089B1898C9180648C93BD
:10029000938D848D981306C00288F389E02D8081A8
:1002A0008F7D80830895EF92FF920F931F93CF93DA
:1002B000DF93EC0181E0888F9B8D8C8D981305C0B6
:1002C000E889F989808185FD24C0F62E0B8D10E028
:1002D0000F5F1F4F0F731127E02E8C8DE8120CC09B
:1002E0000FB607FCFACFE889F989808185FFF5CF41
:1002F000CE010E943201F1CF8B8DFE01E80FF11D7E
:10030000E35AFF4FF0820B8FEA89FB89808180627C
:1003100007C0EE89FF896083E889F989808180645C
:10032000808381E090E0DF91CF911F910F91FF904A
:10033000EF900895CF93DF93EC01888D8823C9F067
:10034000EA89FB89808185FD05C0A889B9898C91DE
:1003500086FD0FC00FB607FCF5CF808185FFF2CF79
:10036000A889B9898C9185FFEDCFCE010E94320119
:10037000E7CFDF91CF91089580E090E0892B29F0BD
:100380000E94280181110C94000008958F929F9281
:10039000AF92BF920F931F93CF93DF93CDB7DEB78A
:1003A000A1970FB6F894DEBF0FBECDBF19A24230A1
:1003B00008F44AE08E010F5D1F4F842E912CA12C72
:1003C000B12CA50194010E94C003E62FB901CA0116
:1003D00001501109EA3014F4E05D01C0E95CD80174
:1003E000EC93232B242B252B61F70115110571F0BC
:1003F000F80101900020E9F73197AF01401B510B44
:10040000B8018DE191E00E94CF0002C080E090E051
:10041000A1960FB6F894DEBF0FBECDBFDF91CF918E
:100420001F910F91BF90AF909F908F9008950E9461
:10043000E8031F920F920FB60F9211242F933F9350
:100440008F939F93AF93BF938091190190911A015D
:10045000A0911B01B0911C013091180123E0230FE2
:100460002D3720F40196A11DB11D05C026E8230FEC
:100470000296A11DB11D209318018093190190933C
:100480001A01A0931B01B0931C018091140190915B
:100490001501A0911601B09117010196A11DB11D82
:1004A0008093140190931501A0931601B093170146
:1004B000BF91AF919F918F913F912F910F900FBE60
:1004C0000F901F9018951F920F920FB60F92112444
:1004D0002F933F934F935F936F937F938F939F934C
:1004E000AF93BF93EF93FF938DE191E00E943201B0
:1004F000FF91EF91BF91AF919F918F917F916F91FC
:100500005F914F913F912F910F900FBE0F901F90D1
:1005100018951F920F920FB60F9211242F938F935D
:100520009F93EF93FF93E0912D01F0912E01808135
:10053000E0913301F091340182FD12C090818091ED
:1005400036018F5F8F7320913701821751F0E09150
:100550003601F0E0E35EFE4F958F8093360101C0D7
:100560008081FF91EF919F918F912F910F900FBEFE
:100570000F901F901895789484B5826084BD84B5DF
:10058000816084BD85B5826085BD85B5816085BD8E
:1005900080916E00816080936E0010928100809146
:1005A00081008260809381008091810081608093CE
:1005B0008100809180008160809380008091B100F3
:1005C00084608093B1008091B00081608093B0001E
:1005D00080917A00846080937A0080917A008260B2
:1005E00080937A0080917A00816080937A00809174
:1005F0007A00806880937A001092C100EAE9F0E006
:100600002491E6E8F0E08491882399F090E0880F47
:10061000991FFC01E859FF4FA591B491FC01EE58D8
:10062000FF4F859194918FB7F894EC91E22BEC9366
:100630008FBFE0912D01F0912E0182E08083E09147
:100640002901F0912A011082E0912B01F0912C01F7
:100650008FEC808310923501E0913101F0913201ED
:1006600086E08083E0912F01F091300180818061EC
:100670008083E0912F01F091300180818860808338
:10068000E0912F01F0913001808180688083E091BA
:100690002F01F091300180818F7D808310E41093D1
:1006A0007C0080917A00806480937A0080917A0047
:1006B00086FDFCCFC091780080917900D0E0D82BE6
:1006C0006E010D2E000CEE08FF08D7FF14C0E0915C
:1006D0001D01F0911E010190F081E02D6DE28DE190
:1006E00091E0099566277727CB016C197D098E0962
:1006F0009F094AE003C04AE0C701B6010E94C60153
:1007000042E050E060E171E08DE191E00E94CF00B5
:10071000C83ED34014F481E001C080E00E9487000D
:100720000E94BC01BCCFEDE1F1E01382128288EEA1
:1007300093E0A0E0B0E084839583A683B78384E050
:1007400091E09183808385EC90E09587848784ECA9
:1007500090E09787868780EC90E0918B808B81EC8E
:1007600090E0938B828B82EC90E0958B848B86EC6F
:1007700090E0978B868B118E128E138E148E0895B7
:10078000A1E21A2EAA1BBB1BFD010DC0AA1FBB1F95
:10079000EE1FFF1FA217B307E407F50720F0A21B07
:1007A000B30BE40BF50B661F771F881F991F1A9474
:1007B00069F760957095809590959B01AC01BD019E
:1007C000CF010895EE0FFF1F0590F491E02D0994DD
:0E07D00081E090E0F8940C94ED03F894FFCFD4
:1007DE00000000005301CF001C01FA000E019A0127
:0407EE000D0A0000F0
:00000001FF
