:100000000C9461000C9473000C9473000C947300B6
:100010000C9473000C9473000C9473000C94730094
:100020000C9473000C9473000C9473000C94730084
:100030000C9473000C9473000C9473000C94730074
:100040000C94C3000C9473000C9473000C94730014
:100050000C9473000C9473000C9473000C94730054
:100060000C9473000C94730000000000240027001F
:100070002A000000000023002600290000000000E4
:10008000250028002B0004040404040404040202D4
:100090000202020203030303030301020408102007
:1000A0004080010204081020010204081020000012
:1000B0000008000201000003040700000000000027
:1000C000000011241FBECFEFD8E0DEBFCDBF21E07E
:1000D000A0E0B1E001C01D92A930B207E1F70E9493
:1000E0000D010C94E0010C940000833081F028F4A1
:1000F000813099F08230A1F008958730A9F08830DE
:10010000B9F08430D1F4809180008F7D03C080915C
:1001100080008F7780938000089584B58F7702C028
:1001200084B58F7D84BD08958091B0008F7703C022
:100130008091B0008F7D8093B00008953FB7F89410
:100140008091050190910601A0910701B0910801ED
:1001500026B5A89B05C02F3F19F00196A11DB11D22
:100160003FBFBA2FA92F982F8827820F911DA11D5D
:10017000B11DBC01CD0142E0660F771F881F991F9A
:100180004A95D1F708951F920F920FB60F9211243E
:100190002F933F938F939F93AF93BF9380910101D0
:1001A00090910201A0910301B091040130910001EE
:1001B00023E0230F2D3720F40196A11DB11D05C0AA
:1001C00026E8230F0296A11DB11D20930001809304
:1001D000010190930201A0930301B0930401809167
:1001E000050190910601A0910701B09108010196C7
:1001F000A11DB11D8093050190930601A0930701F5
:10020000B0930801BF91AF919F918F913F912F9132
:100210000F900FBE0F901F901895789484B5826050
:1002200084BD84B5816084BD85B5826085BD85B59A
:10023000816085BD80916E00816080936E00109218
:100240008100809181008260809381008091810093
:100250008160809381008091800081608093800024
:100260008091B10084608093B1008091B000816082
:100270008093B00080917A00846080937A008091AE
:100280007A00826080937A0080917A008160809306
:100290007A0080917A00806880937A001092C10081
:1002A000C4EAD0E0FE01249100E910E0F801849155
:1002B000882399F090E0880F991FFC01E859FF4FBF
:1002C000A591B49184589F4FFC01459154918FB7EB
:1002D000F8949C91292B2C938FBF48EBE42E40E09F
:1002E000F42E50E0C52E50E0D52EF7018491FE018A
:1002F000A490F801B490BB20A1F081110E94750078
:10030000EB2DF0E0EE0FFF1FEE58FF4FA591B491DB
:100310008C91A82291E080E009F490E0A92EB82EFB
:1003200002C0A12CB12CF7018491FE018490F80148
:1003300094909920B9F081110E947500892D90E068
:10034000880F991F84589F4FFC01A591B4918FB7D6
:10035000F8949C91AB2819F08094892201C0892AD5
:100360008C928FBF0E949E002B013C0188EE882E4C
:1003700083E0982EA12CB12C0E949E00DC01CB01C1
:1003800084199509A609B709883E9340A105B105CE
:1003900058F0F1E08F1A9108A108B10828EE420E3A
:1003A00023E0521E611C711C81149104A104B1044C
:1003B00019F7C114D10409F498CF0E94000095CF19
:0403C000F894FFCFDF
:00000001FF
